{
  "contractName": "BCFL",
  "abi": [
    {
      "inputs": [],
      "stateMutability": "nonpayable",
      "type": "constructor"
    },
    {
      "anonymous": false,
      "inputs": [
        {
          "indexed": false,
          "internalType": "uint256",
          "name": "round",
          "type": "uint256"
        },
        {
          "indexed": false,
          "internalType": "string",
          "name": "cid",
          "type": "string"
        }
      ],
      "name": "GlobalModelUpdated",
      "type": "event"
    },
    {
      "anonymous": false,
      "inputs": [
        {
          "indexed": false,
          "internalType": "address",
          "name": "trainer",
          "type": "address"
        },
        {
          "indexed": false,
          "internalType": "uint256",
          "name": "round",
          "type": "uint256"
        },
        {
          "indexed": false,
          "internalType": "uint256",
          "name": "score",
          "type": "uint256"
        }
      ],
      "name": "ScoreSubmitted",
      "type": "event"
    },
    {
      "anonymous": false,
      "inputs": [
        {
          "indexed": false,
          "internalType": "string",
          "name": "genesisModelCID",
          "type": "string"
        },
        {
          "indexed": false,
          "internalType": "uint256",
          "name": "totalRounds",
          "type": "uint256"
        }
      ],
      "name": "TaskInitialized",
      "type": "event"
    },
    {
      "anonymous": false,
      "inputs": [
        {
          "indexed": false,
          "internalType": "address",
          "name": "trainer",
          "type": "address"
        },
        {
          "indexed": false,
          "internalType": "uint256",
          "name": "amount",
          "type": "uint256"
        }
      ],
      "name": "TokensDistributed",
      "type": "event"
    },
    {
      "anonymous": false,
      "inputs": [
        {
          "indexed": false,
          "internalType": "address",
          "name": "trainer",
          "type": "address"
        },
        {
          "indexed": false,
          "internalType": "uint256",
          "name": "round",
          "type": "uint256"
        },
        {
          "indexed": false,
          "internalType": "string",
          "name": "cid",
          "type": "string"
        }
      ],
      "name": "UpdateSubmitted",
      "type": "event"
    },
    {
      "inputs": [],
      "name": "currentRound",
      "outputs": [
        {
          "internalType": "uint256",
          "name": "",
          "type": "uint256"
        }
      ],
      "stateMutability": "view",
      "type": "function",
      "constant": true
    },
    {
      "inputs": [],
      "name": "evaluator",
      "outputs": [
        {
          "internalType": "address",
          "name": "",
          "type": "address"
        }
      ],
      "stateMutability": "view",
      "type": "function",
      "constant": true
    },
    {
      "inputs": [],
      "name": "owner",
      "outputs": [
        {
          "internalType": "address",
          "name": "",
          "type": "address"
        }
      ],
      "stateMutability": "view",
      "type": "function",
      "constant": true
    },
    {
      "inputs": [
        {
          "internalType": "address",
          "name": "",
          "type": "address"
        }
      ],
      "name": "rewards",
      "outputs": [
        {
          "internalType": "uint256",
          "name": "",
          "type": "uint256"
        }
      ],
      "stateMutability": "view",
      "type": "function",
      "constant": true
    },
    {
      "inputs": [
        {
          "internalType": "uint256",
          "name": "",
          "type": "uint256"
        }
      ],
      "name": "rounds",
      "outputs": [
        {
          "internalType": "string",
          "name": "globalModelCID",
          "type": "string"
        }
      ],
      "stateMutability": "view",
      "type": "function",
      "constant": true
    },
    {
      "inputs": [],
      "name": "task",
      "outputs": [
        {
          "internalType": "address",
          "name": "creator",
          "type": "address"
        },
        {
          "internalType": "string",
          "name": "genesisModelCID",
          "type": "string"
        },
        {
          "internalType": "uint256",
          "name": "totalRounds",
          "type": "uint256"
        },
        {
          "internalType": "uint256",
          "name": "trainerCount",
          "type": "uint256"
        },
        {
          "internalType": "bool",
          "name": "initialized",
          "type": "bool"
        }
      ],
      "stateMutability": "view",
      "type": "function",
      "constant": true
    },
    {
      "inputs": [
        {
          "internalType": "string",
          "name": "_genesisModelCID",
          "type": "string"
        },
        {
          "internalType": "uint256",
          "name": "_totalRounds",
          "type": "uint256"
        },
        {
          "internalType": "uint256",
          "name": "_trainerCount",
          "type": "uint256"
        }
      ],
      "name": "initialize",
      "outputs": [],
      "stateMutability": "nonpayable",
      "type": "function"
    },
    {
      "inputs": [
        {
          "internalType": "uint256",
          "name": "round",
          "type": "uint256"
        },
        {
          "internalType": "string",
          "name": "cid",
          "type": "string"
        }
      ],
      "name": "submitUpdate",
      "outputs": [],
      "stateMutability": "nonpayable",
      "type": "function"
    },
    {
      "inputs": [
        {
          "internalType": "uint256",
          "name": "round",
          "type": "uint256"
        },
        {
          "internalType": "address",
          "name": "trainer",
          "type": "address"
        },
        {
          "internalType": "uint256",
          "name": "score",
          "type": "uint256"
        }
      ],
      "name": "submitScore",
      "outputs": [],
      "stateMutability": "nonpayable",
      "type": "function"
    },
    {
      "inputs": [
        {
          "internalType": "uint256",
          "name": "round",
          "type": "uint256"
        },
        {
          "internalType": "address[]",
          "name": "trainers",
          "type": "address[]"
        }
      ],
      "name": "selectTrainersForRound",
      "outputs": [],
      "stateMutability": "nonpayable",
      "type": "function"
    },
    {
      "inputs": [
        {
          "internalType": "uint256",
          "name": "round",
          "type": "uint256"
        }
      ],
      "name": "getSelectedTrainers",
      "outputs": [
        {
          "internalType": "address[]",
          "name": "",
          "type": "address[]"
        }
      ],
      "stateMutability": "view",
      "type": "function",
      "constant": true
    },
    {
      "inputs": [],
      "name": "getCurrentRound",
      "outputs": [
        {
          "internalType": "uint256",
          "name": "",
          "type": "uint256"
        }
      ],
      "stateMutability": "view",
      "type": "function",
      "constant": true
    },
    {
      "inputs": [
        {
          "internalType": "uint256",
          "name": "round",
          "type": "uint256"
        }
      ],
      "name": "getGlobalModelCID",
      "outputs": [
        {
          "internalType": "string",
          "name": "",
          "type": "string"
        }
      ],
      "stateMutability": "view",
      "type": "function",
      "constant": true
    },
    {
      "inputs": [
        {
          "internalType": "uint256",
          "name": "round",
          "type": "uint256"
        },
        {
          "internalType": "string",
          "name": "cid",
          "type": "string"
        }
      ],
      "name": "submitGlobalModel",
      "outputs": [],
      "stateMutability": "nonpayable",
      "type": "function"
    },
    {
      "inputs": [
        {
          "internalType": "uint256",
          "name": "round",
          "type": "uint256"
        },
        {
          "internalType": "uint256",
          "name": "totalReward",
          "type": "uint256"
        }
      ],
      "name": "distributeTokens",
      "outputs": [],
      "stateMutability": "nonpayable",
      "type": "function"
    },
    {
      "inputs": [
        {
          "internalType": "address",
          "name": "_evaluator",
          "type": "address"
        }
      ],
      "name": "setEvaluator",
      "outputs": [],
      "stateMutability": "nonpayable",
      "type": "function"
    },
    {
      "inputs": [
        {
          "internalType": "address",
          "name": "trainer",
          "type": "address"
        }
      ],
      "name": "getReward",
      "outputs": [
        {
          "internalType": "uint256",
          "name": "",
          "type": "uint256"
        }
      ],
      "stateMutability": "view",
      "type": "function",
      "constant": true
    }
  ],
  "bytecode": "0x608060405234801561001057600080fd5b5033600860006101000a81548173ffffffffffffffffffffffffffffffffffffffff021916908373ffffffffffffffffffffffffffffffffffffffff16021790555033600960006101000a81548173ffffffffffffffffffffffffffffffffffffffff021916908373ffffffffffffffffffffffffffffffffffffffff160217905550600060058190555061201a806100aa6000396000f3fe608060405234801561001057600080fd5b506004361061010b5760003560e01c8063977d08c0116100a2578063c00007b011610071578063c00007b014610296578063c0484dae146102c6578063c6e5546c146102f6578063e59a852514610312578063ea67bed8146103425761010b565b8063977d08c0146102225780639cb93dd11461023e5780639dea60a81461025c578063a32bf597146102785761010b565b806387d8b355116100de57806387d8b3551461019a5780638a19c8bc146101b65780638c65c81f146101d45780638da5cb5b146102045761010b565b806302dbbbac146101105780630700037d1461012c57806329d8e8571461015c5780633283f64114610178575b600080fd5b61012a60048036038101906101259190611538565b61035e565b005b61014660048036038101906101419190611538565b610432565b6040516101539190611bd6565b60405180910390f35b610176600480360381019061017191906115f1565b61044a565b005b6101806105b6565b6040516101919594939291906119aa565b60405180910390f35b6101b460048036038101906101af9190611640565b61068f565b005b6101be610860565b6040516101cb9190611bd6565b60405180910390f35b6101ee60048036038101906101e991906115c8565b610866565b6040516101fb9190611ac4565b60405180910390f35b61020c61090c565b604051610219919061198f565b60405180910390f35b61023c60048036038101906102379190611561565b610932565b005b610246610b5a565b604051610253919061198f565b60405180910390f35b61027660048036038101906102719190611694565b610b80565b005b610280610cd4565b60405161028d9190611bd6565b60405180910390f35b6102b060048036038101906102ab9190611538565b610cde565b6040516102bd9190611bd6565b60405180910390f35b6102e060048036038101906102db91906115c8565b610d27565b6040516102ed9190611aa2565b60405180910390f35b610310600480360381019061030b91906116e8565b610dcb565b005b61032c600480360381019061032791906115c8565b6111b9565b6040516103399190611ac4565b60405180910390f35b61035c60048036038101906103579190611694565b611261565b005b600860009054906101000a900473ffffffffffffffffffffffffffffffffffffffff1673ffffffffffffffffffffffffffffffffffffffff163373ffffffffffffffffffffffffffffffffffffffff16146103ee576040517f08c379a00000000000000000000000000000000000000000000000000000000081526004016103e590611bb6565b60405180910390fd5b80600960006101000a81548173ffffffffffffffffffffffffffffffffffffffff021916908373ffffffffffffffffffffffffffffffffffffffff16021790555050565b60076020528060005260406000206000915090505481565b600960009054906101000a900473ffffffffffffffffffffffffffffffffffffffff1673ffffffffffffffffffffffffffffffffffffffff163373ffffffffffffffffffffffffffffffffffffffff16146104da576040517f08c379a00000000000000000000000000000000000000000000000000000000081526004016104d190611b76565b60405180910390fd5b600554831461051e576040517f08c379a000000000000000000000000000000000000000000000000000000000815260040161051590611b56565b60405180910390fd5b806006600085815260200190815260200160002060020160008473ffffffffffffffffffffffffffffffffffffffff1673ffffffffffffffffffffffffffffffffffffffff168152602001908152602001600020819055507fb7f20d0949b6a8bc59d005af4a52f7ff5d0cfcde9056fa556adb0e4b24dcb6d28284836040516105a993929190611a6b565b60405180910390a1505050565b60008060000160009054906101000a900473ffffffffffffffffffffffffffffffffffffffff16908060010180546105ed90611e6e565b80601f016020809104026020016040519081016040528092919081815260200182805461061990611e6e565b80156106665780601f1061063b57610100808354040283529160200191610666565b820191906000526020600020905b81548152906001019060200180831161064957829003601f168201915b5050505050908060020154908060030154908060040160009054906101000a900460ff16905085565b600860009054906101000a900473ffffffffffffffffffffffffffffffffffffffff1673ffffffffffffffffffffffffffffffffffffffff163373ffffffffffffffffffffffffffffffffffffffff161461071f576040517f08c379a000000000000000000000000000000000000000000000000000000000815260040161071690611bb6565b60405180910390fd5b6005548214610763576040517f08c379a000000000000000000000000000000000000000000000000000000000815260040161075a90611b56565b60405180910390fd5b600660008381526020019081526020016000206003016000610785919061134c565b60005b815181101561085b57600660008481526020019081526020016000206003018282815181106107e0577f4e487b7100000000000000000000000000000000000000000000000000000000600052603260045260246000fd5b60200260200101519080600181540180825580915050600190039060005260206000200160009091909190916101000a81548173ffffffffffffffffffffffffffffffffffffffff021916908373ffffffffffffffffffffffffffffffffffffffff160217905550808061085390611ea0565b915050610788565b505050565b60055481565b600660205280600052604060002060009150905080600001805461088990611e6e565b80601f01602080910402602001604051908101604052809291908181526020018280546108b590611e6e565b80156109025780601f106108d757610100808354040283529160200191610902565b820191906000526020600020905b8154815290600101906020018083116108e557829003601f168201915b5050505050905081565b600860009054906101000a900473ffffffffffffffffffffffffffffffffffffffff1681565b600860009054906101000a900473ffffffffffffffffffffffffffffffffffffffff1673ffffffffffffffffffffffffffffffffffffffff163373ffffffffffffffffffffffffffffffffffffffff16146109c2576040517f08c379a00000000000000000000000000000000000000000000000000000000081526004016109b990611bb6565b60405180910390fd5b600060040160009054906101000a900460ff1615610a15576040517f08c379a0000000000000000000000000000000000000000000000000000000008152600401610a0c90611b36565b60405180910390fd5b6040518060a001604052803373ffffffffffffffffffffffffffffffffffffffff168152602001848152602001838152602001828152602001600115158152506000808201518160000160006101000a81548173ffffffffffffffffffffffffffffffffffffffff021916908373ffffffffffffffffffffffffffffffffffffffff1602179055506020820151816001019080519060200190610ab992919061136d565b50604082015181600201556060820151816003015560808201518160040160006101000a81548160ff02191690831515021790555090505082600660008081526020019081526020016000206000019080519060200190610b1b92919061136d565b507f11afc9cd9cd50adb591e20b8bdfb46771413bf95c6324f278499061bdefa62f68383604051610b4d929190611ae6565b60405180910390a1505050565b600960009054906101000a900473ffffffffffffffffffffffffffffffffffffffff1681565b600860009054906101000a900473ffffffffffffffffffffffffffffffffffffffff1673ffffffffffffffffffffffffffffffffffffffff163373ffffffffffffffffffffffffffffffffffffffff1614610c10576040517f08c379a0000000000000000000000000000000000000000000000000000000008152600401610c0790611bb6565b60405180910390fd5b6005548214610c54576040517f08c379a0000000000000000000000000000000000000000000000000000000008152600401610c4b90611b56565b60405180910390fd5b80600660008481526020019081526020016000206000019080519060200190610c7e92919061136d565b5060056000815480929190610c9290611ea0565b91905055507ff5349192467e1a2d228acda106f6456f317341386e8bc9ff3aa03a8693052d4b8282604051610cc8929190611bf1565b60405180910390a15050565b6000600554905090565b6000600760008373ffffffffffffffffffffffffffffffffffffffff1673ffffffffffffffffffffffffffffffffffffffff168152602001908152602001600020549050919050565b606060066000838152602001908152602001600020600301805480602002602001604051908101604052809291908181526020018280548015610dbf57602002820191906000526020600020905b8160009054906101000a900473ffffffffffffffffffffffffffffffffffffffff1673ffffffffffffffffffffffffffffffffffffffff1681526020019060010190808311610d75575b50505050509050919050565b600860009054906101000a900473ffffffffffffffffffffffffffffffffffffffff1673ffffffffffffffffffffffffffffffffffffffff163373ffffffffffffffffffffffffffffffffffffffff1614610e5b576040517f08c379a0000000000000000000000000000000000000000000000000000000008152600401610e5290611bb6565b60405180910390fd5b6005548210610e9f576040517f08c379a0000000000000000000000000000000000000000000000000000000008152600401610e9690611b16565b60405180910390fd5b6000805b6006600085815260200190815260200160002060030180549050811015610fb6576000600660008681526020019081526020016000206003018281548110610f14577f4e487b7100000000000000000000000000000000000000000000000000000000600052603260045260246000fd5b9060005260206000200160009054906101000a900473ffffffffffffffffffffffffffffffffffffffff1690506006600086815260200190815260200160002060020160008273ffffffffffffffffffffffffffffffffffffffff1673ffffffffffffffffffffffffffffffffffffffff1681526020019081526020016000205483610fa09190611d03565b9250508080610fae90611ea0565b915050610ea3565b5060008111610ffa576040517f08c379a0000000000000000000000000000000000000000000000000000000008152600401610ff190611b96565b60405180910390fd5b60005b60066000858152602001908152602001600020600301805490508110156111b357600060066000868152602001908152602001600020600301828154811061106e577f4e487b7100000000000000000000000000000000000000000000000000000000600052603260045260246000fd5b9060005260206000200160009054906101000a900473ffffffffffffffffffffffffffffffffffffffff16905060006006600087815260200190815260200160002060020160008373ffffffffffffffffffffffffffffffffffffffff1673ffffffffffffffffffffffffffffffffffffffff16815260200190815260200160002054905060008486836111029190611d8a565b61110c9190611d59565b905080600760008573ffffffffffffffffffffffffffffffffffffffff1673ffffffffffffffffffffffffffffffffffffffff168152602001908152602001600020600082825461115d9190611d03565b925050819055507f16b0da2ffcb90c6723317bd637d9aad7f04711f42bbe0ac0918ebe10f1f9001c8382604051611195929190611a04565b60405180910390a150505080806111ab90611ea0565b915050610ffd565b50505050565b60606006600083815260200190815260200160002060000180546111dc90611e6e565b80601f016020809104026020016040519081016040528092919081815260200182805461120890611e6e565b80156112555780601f1061122a57610100808354040283529160200191611255565b820191906000526020600020905b81548152906001019060200180831161123857829003601f168201915b50505050509050919050565b60055482146112a5576040517f08c379a000000000000000000000000000000000000000000000000000000000815260040161129c90611b56565b60405180910390fd5b806006600084815260200190815260200160002060010160003373ffffffffffffffffffffffffffffffffffffffff1673ffffffffffffffffffffffffffffffffffffffff168152602001908152602001600020908051906020019061130c92919061136d565b507f98a33c001c2982f7e41f57e54a77b5908220d0b064f469c840a420ee65a2c0f533838360405161134093929190611a2d565b60405180910390a15050565b508054600082559060005260206000209081019061136a91906113f3565b50565b82805461137990611e6e565b90600052602060002090601f01602090048101928261139b57600085556113e2565b82601f106113b457805160ff19168380011785556113e2565b828001600101855582156113e2579182015b828111156113e15782518255916020019190600101906113c6565b5b5090506113ef91906113f3565b5090565b5b8082111561140c5760008160009055506001016113f4565b5090565b600061142361141e84611c52565b611c21565b9050808382526020820190508285602086028201111561144257600080fd5b60005b85811015611472578161145888826114ba565b845260208401935060208301925050600181019050611445565b5050509392505050565b600061148f61148a84611c7e565b611c21565b9050828152602081018484840111156114a757600080fd5b6114b2848285611e2c565b509392505050565b6000813590506114c981611fb6565b92915050565b600082601f8301126114e057600080fd5b81356114f0848260208601611410565b91505092915050565b600082601f83011261150a57600080fd5b813561151a84826020860161147c565b91505092915050565b60008135905061153281611fcd565b92915050565b60006020828403121561154a57600080fd5b6000611558848285016114ba565b91505092915050565b60008060006060848603121561157657600080fd5b600084013567ffffffffffffffff81111561159057600080fd5b61159c868287016114f9565b93505060206115ad86828701611523565b92505060406115be86828701611523565b9150509250925092565b6000602082840312156115da57600080fd5b60006115e884828501611523565b91505092915050565b60008060006060848603121561160657600080fd5b600061161486828701611523565b9350506020611625868287016114ba565b925050604061163686828701611523565b9150509250925092565b6000806040838503121561165357600080fd5b600061166185828601611523565b925050602083013567ffffffffffffffff81111561167e57600080fd5b61168a858286016114cf565b9150509250929050565b600080604083850312156116a757600080fd5b60006116b585828601611523565b925050602083013567ffffffffffffffff8111156116d257600080fd5b6116de858286016114f9565b9150509250929050565b600080604083850312156116fb57600080fd5b600061170985828601611523565b925050602061171a85828601611523565b9150509250929050565b6000611730838361173c565b60208301905092915050565b61174581611de4565b82525050565b61175481611de4565b82525050565b600061176582611cbe565b61176f8185611ce1565b935061177a83611cae565b8060005b838110156117ab5781516117928882611724565b975061179d83611cd4565b92505060018101905061177e565b5085935050505092915050565b6117c181611df6565b82525050565b60006117d282611cc9565b6117dc8185611cf2565b93506117ec818560208601611e3b565b6117f581611fa5565b840191505092915050565b600061180d601383611cf2565b91507f526f756e64206e6f7420636f6d706c65746564000000000000000000000000006000830152602082019050919050565b600061184d601883611cf2565b91507f5461736b20616c726561647920696e697469616c697a656400000000000000006000830152602082019050919050565b600061188d600d83611cf2565b91507f496e76616c696420726f756e64000000000000000000000000000000000000006000830152602082019050919050565b60006118cd601c83611cf2565b91507f4f6e6c79206576616c7561746f722063616e2063616c6c2074686973000000006000830152602082019050919050565b600061190d601383611cf2565b91507f4e6f2073636f72657320617661696c61626c65000000000000000000000000006000830152602082019050919050565b600061194d601883611cf2565b91507f4f6e6c79206f776e65722063616e2063616c6c207468697300000000000000006000830152602082019050919050565b61198981611e22565b82525050565b60006020820190506119a4600083018461174b565b92915050565b600060a0820190506119bf600083018861174b565b81810360208301526119d181876117c7565b90506119e06040830186611980565b6119ed6060830185611980565b6119fa60808301846117b8565b9695505050505050565b6000604082019050611a19600083018561174b565b611a266020830184611980565b9392505050565b6000606082019050611a42600083018661174b565b611a4f6020830185611980565b8181036040830152611a6181846117c7565b9050949350505050565b6000606082019050611a80600083018661174b565b611a8d6020830185611980565b611a9a6040830184611980565b949350505050565b60006020820190508181036000830152611abc818461175a565b905092915050565b60006020820190508181036000830152611ade81846117c7565b905092915050565b60006040820190508181036000830152611b0081856117c7565b9050611b0f6020830184611980565b9392505050565b60006020820190508181036000830152611b2f81611800565b9050919050565b60006020820190508181036000830152611b4f81611840565b9050919050565b60006020820190508181036000830152611b6f81611880565b9050919050565b60006020820190508181036000830152611b8f816118c0565b9050919050565b60006020820190508181036000830152611baf81611900565b9050919050565b60006020820190508181036000830152611bcf81611940565b9050919050565b6000602082019050611beb6000830184611980565b92915050565b6000604082019050611c066000830185611980565b8181036020830152611c1881846117c7565b90509392505050565b6000604051905081810181811067ffffffffffffffff82111715611c4857611c47611f76565b5b8060405250919050565b600067ffffffffffffffff821115611c6d57611c6c611f76565b5b602082029050602081019050919050565b600067ffffffffffffffff821115611c9957611c98611f76565b5b601f19601f8301169050602081019050919050565b6000819050602082019050919050565b600081519050919050565b600081519050919050565b6000602082019050919050565b600082825260208201905092915050565b600082825260208201905092915050565b6000611d0e82611e22565b9150611d1983611e22565b9250827fffffffffffffffffffffffffffffffffffffffffffffffffffffffffffffffff03821115611d4e57611d4d611ee9565b5b828201905092915050565b6000611d6482611e22565b9150611d6f83611e22565b925082611d7f57611d7e611f18565b5b828204905092915050565b6000611d9582611e22565b9150611da083611e22565b9250817fffffffffffffffffffffffffffffffffffffffffffffffffffffffffffffffff0483118215151615611dd957611dd8611ee9565b5b828202905092915050565b6000611def82611e02565b9050919050565b60008115159050919050565b600073ffffffffffffffffffffffffffffffffffffffff82169050919050565b6000819050919050565b82818337600083830152505050565b60005b83811015611e59578082015181840152602081019050611e3e565b83811115611e68576000848401525b50505050565b60006002820490506001821680611e8657607f821691505b60208210811415611e9a57611e99611f47565b5b50919050565b6000611eab82611e22565b91507fffffffffffffffffffffffffffffffffffffffffffffffffffffffffffffffff821415611ede57611edd611ee9565b5b600182019050919050565b7f4e487b7100000000000000000000000000000000000000000000000000000000600052601160045260246000fd5b7f4e487b7100000000000000000000000000000000000000000000000000000000600052601260045260246000fd5b7f4e487b7100000000000000000000000000000000000000000000000000000000600052602260045260246000fd5b7f4e487b7100000000000000000000000000000000000000000000000000000000600052604160045260246000fd5b6000601f19601f8301169050919050565b611fbf81611de4565b8114611fca57600080fd5b50565b611fd681611e22565b8114611fe157600080fd5b5056fea26469706673582212207b7ca9e184529df6559c0a8ec5bca78c351b1b439a6bca8d8a330a99491d2e3264736f6c63430008000033",
  "immutableReferences": {},
  "source": "// SPDX-License-Identifier: MIT\npragma solidity ^0.8.0;\n\ncontract BCFL {\n    struct Task {\n        address creator;\n        string genesisModelCID;\n        uint totalRounds;\n        uint trainerCount;\n        bool initialized;\n    }\n\n    struct RoundData {\n        string globalModelCID;\n        mapping(address => string) updates;\n        mapping(address => uint) scores;\n        address[] selectedTrainers;\n    }\n\n    Task public task;\n    uint public currentRound;\n    mapping(uint => RoundData) public rounds;\n    mapping(address => uint) public rewards;\n    address public owner;\n    address public evaluator;\n\n    event TaskInitialized(string genesisModelCID, uint totalRounds);\n    event UpdateSubmitted(address trainer, uint round, string cid);\n    event ScoreSubmitted(address trainer, uint round, uint score);\n    event GlobalModelUpdated(uint round, string cid);\n    event TokensDistributed(address trainer, uint amount);\n\n    modifier onlyOwner() {\n        require(msg.sender == owner, \"Only owner can call this\");\n        _;\n    }\n\n    modifier onlyEvaluator() {\n        require(msg.sender == evaluator, \"Only evaluator can call this\");\n        _;\n    }\n\n    constructor() {\n        owner = msg.sender;\n        evaluator = msg.sender;\n        currentRound = 0;\n    }\n\n    function initialize(string memory _genesisModelCID, uint _totalRounds, uint _trainerCount) external onlyOwner {\n        require(!task.initialized, \"Task already initialized\");\n        task = Task({\n            creator: msg.sender,\n            genesisModelCID: _genesisModelCID,\n            totalRounds: _totalRounds,\n            trainerCount: _trainerCount,\n            initialized: true\n        });\n        rounds[0].globalModelCID = _genesisModelCID;\n        emit TaskInitialized(_genesisModelCID, _totalRounds);\n    }\n\n    function submitUpdate(uint round, string memory cid) external {\n        require(round == currentRound, \"Invalid round\");\n        rounds[round].updates[msg.sender] = cid;\n        emit UpdateSubmitted(msg.sender, round, cid);\n    }\n\n    function submitScore(uint round, address trainer, uint score) external onlyEvaluator {\n        require(round == currentRound, \"Invalid round\");\n        rounds[round].scores[trainer] = score;\n        emit ScoreSubmitted(trainer, round, score);\n    }\n\n    function selectTrainersForRound(uint round, address[] memory trainers) external onlyOwner {\n        require(round == currentRound, \"Invalid round\");\n        delete rounds[round].selectedTrainers;\n        for (uint i = 0; i < trainers.length; i++) {\n            rounds[round].selectedTrainers.push(trainers[i]);\n        }\n    }\n\n    function getSelectedTrainers(uint round) external view returns (address[] memory) {\n        return rounds[round].selectedTrainers;\n    }\n\n    function getCurrentRound() external view returns (uint) {\n        return currentRound;\n    }\n\n    function getGlobalModelCID(uint round) external view returns (string memory) {\n        return rounds[round].globalModelCID;\n    }\n\n    function submitGlobalModel(uint round, string memory cid) external onlyOwner {\n        require(round == currentRound, \"Invalid round\");\n        rounds[round].globalModelCID = cid;\n        currentRound++;\n        emit GlobalModelUpdated(round, cid);\n    }\n\n    function distributeTokens(uint round, uint totalReward) external onlyOwner {\n        require(round < currentRound, \"Round not completed\");\n        uint totalScore = 0;\n        for (uint i = 0; i < rounds[round].selectedTrainers.length; i++) {\n            address trainer = rounds[round].selectedTrainers[i];\n            totalScore += rounds[round].scores[trainer];\n        }\n        require(totalScore > 0, \"No scores available\");\n\n        for (uint i = 0; i < rounds[round].selectedTrainers.length; i++) {\n            address trainer = rounds[round].selectedTrainers[i];\n            uint score = rounds[round].scores[trainer];\n            uint reward = (score * totalReward) / totalScore;\n            rewards[trainer] += reward;\n            emit TokensDistributed(trainer, reward);\n        }\n    }\n\n    function setEvaluator(address _evaluator) external onlyOwner {\n        evaluator = _evaluator;\n    }\n\n    function getReward(address trainer) external view returns (uint) {\n        return rewards[trainer];\n    }\n}",
  "sourcePath": "/root/shared-nvme/mgr/decentralized_fl/contracts/BCFL.sol",
  "compiler": {
    "name": "solc",
    "version": "0.8.0+commit.c7dfd78e.Emscripten.clang"
  },
  "schemaVersion": "3.4.16",
  "updatedAt": "2025-03-25T13:03:43.104Z",
  "networkType": "ethereum",
  "devdoc": {
    "kind": "dev",
    "methods": {},
    "version": 1
  },
  "userdoc": {
    "kind": "user",
    "methods": {},
    "version": 1
  }
}